:060000000A128A1100291A
:1002000008211D2183120313242129212E210421D9
:1002100083160317880189018316031305148514B7
:1002200005158515051686018701880183120313BC
:1002300085018601870188010800031383160F17C3
:100240008F120F120F14080005183121851838215C
:10025000080005193F21851946210800051A4D217E
:100260000800532105183229860A0F308605080038
:1002700053218518392986030F308605080053213C
:1002800005194029870A0F30870508005321851971
:10029000472987030F30870508005321051A4E2987
:1002A0000608070788009630A000A00B5529080013
:04400E00D420FF3F7C
:00000001FF
